:020000040800F2
:10400000FFFF0120B5030108E9840008EB840008E4
:104010003D86000881860008C58600080000000073
:10402000000000000000000000000000916F000888
:10403000098700080000000025700008E5840008DA
:10404000F9030108F9030108F9030108F90301085C
:10405000F9030108F90301087B8300088B8300083A
:104060009B830008AB830008B98300083151010825
:10407000F9030108555101084D740108E173010865
:104080000B870008F9030108F9030108F903010887
:10409000F9030108F9030108F9030108D1830008B5
:1040A000F9030108F9030108F9030108F9030108FC
:1040B000F9030108F9030108F90301082551010872
:1040C00019510108F9030108F9030108F90301086E
:1040D000F9030108F9030108F9030108115C01085B
:1040E00049840008F9030108F9030108F9030108EC
:1040F000F9030108B55D0108F9030108F903010896
:10410000F9030108F9030108F9030108F90301089B
:10411000F9030108F9030108F903010839840108CA
:10412000B5EF0108F9030108F9030108F9030108D3
:10413000F9030108F9030108F9030108F90301086B
:10414000F9030108F9030108F9030108B110010896
:1041500049EF0108F9030108DD5A0108D95A01089D
:10416000495101083D510108F9030108F90301080B
:10417000F9030108F9030108F9030108F90301082B
:08418000F9030108F90301082D
:1041880081F0004102E000BF83F0004330B54FEA00
:1041980041044FEA430594EA050F08BF90EA020F6D
:1041A8001FBF54EA000C55EA020C7FEA645C7FEA00
:1041B800655C00F0E2804FEA5454D4EB5555B8BF23
:1041C8006D420CDD2C4480EA020281EA030382EA94
:1041D800000083EA010180EA020281EA0303362D26
:1041E80088BF30BD11F0004F4FEA01314FF4801CF9
:1041F8004CEA113102D0404261EB410113F0004F0B
:104208004FEA03334CEA133302D0524263EB4303C1
:1042180094EA050F00F0A780A4F10104D5F1200E5F
:104228000DDB02FA0EFC22FA05F2801841F10001BA
:1042380003FA0EF2801843FA05F359410EE0A5F18E
:1042480020050EF1200E012A03FA0EFC28BF4CF0BF
:10425800020C43FA05F3C01851EBE37101F0004575
:1042680007D54FF0000EDCF1000C7EEB00006EEB82
:104278000101B1F5801F1BD3B1F5001F0CD349080C
:104288005FEA30004FEA3C0C04F101044FEA445263
:1042980012F5800F80F09A80BCF1004F08BF5FEAEA
:1042A800500C50F1000041EB045141EA050130BDCA
:1042B8005FEA4C0C404141EB010111F4801FA4F16D
:1042C8000104E9D191F0000F04BF01460020B1FAC2
:1042D80081F308BF2033A3F10B03B3F120020CDAFA
:1042E8000C3208DD02F1140CC2F10C0201FA0CF0D8
:1042F80021FA02F10CE002F11402D8BFC2F1200C3D
:1043080001FA02F120FA0CFCDCBF41EA0C019040F2
:10431800E41AA2BF01EB0451294330BD6FEA04043B
:104328001F3C1CDA0C340EDC04F11404C4F1200226
:1043380020FA04F001FA02F340EA030021FA04F338
:1043480045EA030130BDC4F10C04C4F1200220FA8F
:1043580002F001FA04F340EA0300294630BD21FACD
:1043680004F0294630BD94F0000F83F4801306BF93
:1043780081F480110134013D4EE77FEA645C18BF87
:104388007FEA655C29D094EA050F08BF90EA020F1E
:1043980005D054EA000C04BF1946104630BD91EA16
:1043A800030F1EBF0021002030BD5FEA545C05D119
:1043B8004000494128BF41F0004130BD14F5800458
:1043C8003CBF01F5801130BD01F0004545F0FE41CC
:1043D80041F470014FF0000030BD7FEA645C1ABF01
:1043E800194610467FEA655C1CBF0B46024650EA38
:1043F800013406BF52EA033591EA030F41F4002164
:1044080030BD00BF90F0000F04BF0021704730B5E9
:104418004FF4806404F132044FF000054FF00001BE
:1044280050E700BF90F0000F04BF0021704730B57F
:104438004FF4806404F1320410F0004548BF404254
:104448004FF000013EE700BF42004FEAE2014FEAA9
:1044580031014FEA02701FBF12F07F4393F07F4F84
:1044680081F06051704732F07F4208BF704793F087
:104478007F4F04BF41F40021704730B54FF460749A
:1044880001F0004521F000411CE700BF50EA01029D
:1044980008BF704730B54FF000050AE050EA010246
:1044A80008BF704730B511F0004502D5404261EBB6
:1044B80041014FF4806404F132045FEA915C3FF4F7
:1044C800D8AE4FF003025FEADC0C18BF03325FEA94
:1044D800DC0C18BF033202EBDC02C2F1200300FA45
:1044E80003FC20FA02F001FA03FE40EA0E0021FA6A
:1044F80002F11444BDE600BF70B54FF0FF0C4CF458
:10450800E06C1CEA11541DBF1CEA135594EA0C0F09
:1045180095EA0C0F00F0DEF82C4481EA030621EA44
:104528004C5123EA4C5350EA013518BF52EA03357F
:1045380041F4801143F4801338D0A0FB02CE4FF031
:104548000005E1FB02E506F00042E0FB03E54FF061
:104558000006E1FB03569CF0000F18BF4EF0010E59
:10456800A4F1FF04B6F5007F64F5407404D25FEA55
:104578004E0E6D4146EB060642EAC62141EA555108
:104588004FEAC52040EA5E504FEACE2EB4F1FD0C4A
:1045980088BFBCF5E06F1ED8BEF1004F08BF5FEAC8
:1045A800500E50F1000041EB045170BD06F000467A
:1045B80046EA010140EA020081EA0301B4EB5C0427
:1045C800C2BFD4EB0C0541EA045170BD41F480111F
:1045D8004FF0000E013C00F3AB8014F1360FDEBF44
:1045E800002001F0004170BDC4F10004203C35DA20
:1045F8000C341BDC04F11404C4F1200500FA05F3A3
:1046080020FA04F001FA05F240EA020001F0004243
:1046180021F0004110EBD37021FA04F642EB0601B9
:104628005EEA430E08BF20EAD37070BDC4F10C04E3
:10463800C4F1200500FA04F320FA05F001FA04F2A7
:1046480040EA020001F0004110EBD37041F1000193
:104658005EEA430E08BF20EAD37070BDC4F120059E
:1046680000FA05F24EEA020E20FA04F301FA05F206
:1046780043EA020321FA04F001F0004121FA04F2AE
:1046880020EA020000EBD3705EEA430E08BF20EA7E
:10469800D37070BD94F0000F0FD101F000464000B8
:1046A80041EB010111F4801F08BF013CF7D041EA3A
:1046B800060195F0000F18BF704703F0004652003E
:1046C80043EB030313F4801F08BF013DF7D043EA0F
:1046D8000603704794EA0C0F0CEA135518BF95EAC5
:1046E8000C0F0CD050EA410618BF52EA4306D1D14C
:1046F80081EA030101F000414FF0000070BD50EA6B
:10470800410606BF1046194652EA430619D094EAF4
:104718000C0F02D150EA013613D195EA0C0F05D1DE
:1047280052EA03361CBF104619460AD181EA030132
:1047380001F0004141F0FE4141F470014FF00000EA
:1047480070BD41F0FE4141F4780170BD70B54FF085
:10475800FF0C4CF4E06C1CEA11541DBF1CEA135505
:1047680094EA0C0F95EA0C0F00F0A7F8A4EB0504E7
:1047780081EA030E52EA03354FEA013100F08880DE
:104788004FEA03334FF0805545EA131343EA1263A7
:104798004FEA022245EA111545EA10654FEA00265C
:1047A8000EF000419D4208BF964244F1FD0404F515
:1047B800407402D25B084FEA3202B61A65EB030571
:1047C8005B084FEA32024FF480104FF4002CB6EB2E
:1047D800020E75EB030E22BFB61A754640EA0C00AE
:1047E8005B084FEA3202B6EB020E75EB030E22BFEE
:1047F800B61A754640EA5C005B084FEA3202B6EB2F
:10480800020E75EB030E22BFB61A754640EA9C00ED
:104818005B084FEA3202B6EB020E75EB030E22BFBD
:10482800B61A754640EADC0055EA060E18D04FEA7B
:10483800051545EA16754FEA06164FEAC30343EA1B
:1048480052734FEAC2025FEA1C1CC0D111F4801FE8
:104858000BD141EA00014FF000004FF0004CB6E7E1
:1048680011F4801F04BF01430020B4F1FD0C88BF80
:10487800BCF5E06F3FF6AFAEB5EB030C04BFB6EB8B
:10488800020C5FEA500C50F1000041EB045170BD7E
:104898000EF0004E4EEA113114EB5C04C2BFD4EBAB
:1048A8000C0541EA045170BD41F480114FF0000E2F
:1048B800013C90E645EA060E8DE60CEA135594EAAB
:1048C8000C0F08BF95EA0C0F3FF43BAF94EA0C0FAE
:1048D8000AD150EA01347FF434AF95EA0C0F7FF423
:1048E80025AF104619462CE795EA0C0F06D152EA77
:1048F80003353FF4FDAE1046194622E750EA41065B
:1049080018BF52EA43067FF4C5AE50EA41047FF46B
:104918000DAF52EA43057FF4EBAE12E74FF0FF3CD0
:1049280006E000BF4FF0010C02E000BF4FF0010CA1
:104938004DF804CD4FEA410C7FEA6C5C4FEA430C1A
:1049480018BF7FEA6C5C1BD001B050EA410C0CBF69
:1049580052EA430C91EA030F02BF90EA020F0020CB
:10496800704710F1000F91EA030F58BF994208BF32
:1049780090422CBFD8176FEAE37040F001007047EF
:104988004FEA410C7FEA6C5C02D150EA013C07D146
:104998004FEA430C7FEA6C5CD6D152EA033CD3D091
:1049A8005DF8040B704700BF8446104662468C468B
:1049B8001946634600E000BF01B5FFF7B7FF0028BE
:1049C80048BF10F1000F01BD4DF808EDFFF7F4FFE7
:1049D8000CBF012000205DF808FB00BF4DF808ED72
:1049E800FFF7EAFF34BF012000205DF808FB00BF95
:1049F8004DF808EDFFF7E0FF94BF012000205DF8B7
:104A080008FB00BF4DF808EDFFF7CEFF94BF01206B
:104A180000205DF808FB00BF4DF808EDFFF7C4FF64
:104A280034BF012000205DF808FB00BF4FEA410CAD
:104A38007FEA6C5C02D150EA013C0AD14FEA430C90
:104A48007FEA6C5C02D152EA033C02D14FF00000CD
:104A580070474FF0010070474FEA410212F500120B
:104A680015D211D56FF47873B3EB625212D94FEAAD
:104A7800C12343F0004343EA505311F0004F23FA97
:104A880002F018BF404270474FF00000704750EAEC
:104A9800013005D111F0004008BF6FF000407047A9
:104AA8004FF00000704700BF4FEA4102B2F1E04307
:104AB80024BFB3F5001CDCF1FE5C0DD901F0004CFD
:104AC8004FEAC0024CEA5070B2F1004F40EB83004D
:104AD80008BF20F00100704711F0804F21D113F179
:104AE8003872BCBF01F00040704741F480114FEAB2
:104AF8005252C2F11802C2F1200C10FA0CF320FA3B
:104B080002F018BF40F001004FEAC1234FEAD32357
:104B180003FA0CFC40EA0C0023FA02F34FEA4303C1
:104B2800CCE77FEA625307D150EA01331EBF4FF04A
:104B3800FE4040F44000704701F0004040F0FE4065
:104B480040F40000704700BF80F0004002E000BF62
:104B580081F0004142001FBF5FEA410392EA030F60
:104B68007FEA226C7FEA236C6AD04FEA1262D2EBAA
:104B78001363C1BFD218414048404140B8BF5B42AF
:104B8800192B88BF704710F0004F40F4000020F048
:104B98007F4018BF404211F0004F41F4000121F05E
:104BA8007F4118BF494292EA030F3FD0A2F10102A8
:104BB80041FA03FC10EB0C00C3F1200301FA03F1E6
:104BC80000F0004302D5494260EB4000B0F5000F09
:104BD80013D3B0F1807F06D340084FEA310102F1C8
:104BE8000102FE2A51D2B1F1004F40EBC25008BF7A
:104BF80020F0010040EA03007047490040EB000044
:104C080010F4000FA2F10102EDD1B0FA80FCACF172
:104C1800080CB2EB0C0200FA0CF0AABF00EBC25071
:104C280052421843BCBFD0401843704792F0000F5F
:104C380081F4000106BF80F400000132013BB5E7B2
:104C48004FEA41037FEA226C18BF7FEA236C21D028
:104C580092EA030F04D092F0000F08BF084670478D
:104C680090EA010F1CBF0020704712F07F4F04D15B
:104C7800400028BF40F00040704712F100723CBF6E
:104C880000F50000704700F0004343F0FE4040F498
:104C9800000070477FEA226216BF08467FEA236356
:104CA8000146420206BF5FEA412390EA010F40F441
:104CB800800070474FF0000304E000BF10F000438D
:104CC80048BF40425FEA000C08BF704743F0964374
:104CD80001464FF000001CE050EA010208BF70478F
:104CE8004FF000030AE000BF50EA010208BF704716
:104CF80011F0004302D5404261EB41015FEA010C2B
:104D080002BF84460146002043F0B64308BFA3F122
:104D18008053A3F50003BCFA8CF2083AA3EBC25304
:104D280010DB01FA02FC634400FA02FCC2F1200223
:104D3800BCF1004F20FA02F243EB020008BF20F05A
:104D48000100704702F1200201FA02FCC2F12002C0
:104D580050EA4C0021FA02F243EB020008BF20EAB5
:104D6800DC70704753B94AB9002908BF00281CBF36
:104D78004FF0FF314FF0FF3000F0E2B9ADF1080C11
:104D88006DE904CE00F076F8DDF804E0DDE90223F1
:104D980004B0704707EE900AF5EEC07AF1EE10FA0B
:104DA80001D400F021B808B580F0004000F01CF8EC
:104DB800404261EB410108BD38B50022002304469A
:104DC8000D46FFF70BFE28B920462946BDE83840B6
:104DD80000F02EB8204605F1004100F029F84042C5
:104DE80061EB410138BD00BFD0B5FFF72DFB0022B4
:104DF8000D4B06460F46FFF77FFB00F0A3F904466C
:104E0800FFF700FB0022094BFFF776FB02460B4633
:104E180030463946FFF7B8F900F094F900222346E6
:104E280010431946D0BD00BF0000F03D0000F0411E
:104E3800D0B500220D4B06460F46FFF75DFB00F08C
:104E480081F90446FFF7DEFA0022094BFFF754FB0D
:104E580002460B4630463946FFF796F900F072F9DC
:104E68000022234610431946D0BD00BF0000F03D84
:104E78000000F0412DE9F047089E04468846002BC3
:104E88004BD18A42154667D9B2FA82F24AB1C2F1C9
:104E9800200701FA02F320FA07F7954047EA0308CA
:104EA80094404FEA154E230CB8FBFEF71FFA85FC19
:104EB8000EFB178843EA084307FB0CF1994209D90E
:104EC800EB1807F1FF3080F01B81994240F21881FE
:104ED800023F2B445B1AA4B2B3FBFEF00EFB103367
:104EE80044EA034400FB0CFCA44509D92C1900F141
:104EF800FF3380F00781A44540F2048102382C4436
:104F080040EA0740A4EB0C0400271EB1D44000235C
:104F1800C6E900433946BDE8F0878B4209D9002E1F
:104F280000F0EB800027C6E9000138463946BDE8A5
:104F3800F087B3FA83F7002F47D18B4202D382421E
:104F480000F2FA80841A61EB030301209846002ED0
:104F5800E0D0C6E90048DDE702B9FFDEB2FA82F226
:104F6800002A40F08F80491B4FEA154E1FFA85F83A
:104F78000127B1FBFEFC230C0EFB1C1143EA014385
:104F880008FB0CF1994207D9EB180CF1FF3002D25B
:104F9800994200F2CD808446591AA3B2B1FBFEF0C3
:104FA8000EFB101443EA044408FB00F8A04507D997
:104FB8002C1900F1FF3302D2A04500F2B680184642
:104FC800A4EB080440EA0C409FE7C7F1200CBB4063
:104FD80022FA0CFE4EEA030E01FA07F420FA0CF549
:104FE80021FA0CF34FEA1E482543B3FBF8F92C0CC1
:104FF80008FB19331FFA8EFA44EA034309FB0AF443
:105008009C4202FA07F200FA07F10BD91EEB0303E0
:1050180009F1FF3080F087809C4240F28480A9F13A
:10502800020973441B1BADB2B3FBF8F008FB103345
:1050380045EA034400FB0AFAA24508D91EEB04041A
:1050480000F1FF336BD2A24569D90238744440EAB3
:105058000940A0FB0289A4EB0A044C45C2464B4612
:1050680054D351D0002E69D0B1EB0A0564EB030488
:1050780004FA0CFCFD40FC404CEA0505C6E9005466
:10508800002747E7C2F1200320FA03F7954001FA09
:1050980002F021FA03F34FEA154E3843010CB3FB33
:1050A800FEF71FFA85F80EFB173341EA034107FBA9
:1050B80008F38B4204FA02F407D9691807F1FF3C98
:1050C8002FD28B422DD9023F2944CB1A81B2B3FB90
:1050D800FEF00EFB103341EA034100FB08F38B425C
:1050E80007D9691800F1FF3C17D28B4215D902384D
:1050F8002944C91A40EA07473BE73746304609E7DB
:105108000746E7E61846FBE64145ABD2B8EB020A8C
:1051180069EB0E0201381346A4E76046E9E7184632
:1051280095E76746D1E781467CE702382C4447E794
:10513800ACF1020C2B442FE7384608E73746E9E67E
:10514800704700BF4A0011D212F5001211D20DD5D6
:105158006FF47873B3EB62520ED44FEAC12343F075
:10516800004343EA505323FA02F070474FF000001F
:10517800704750EA013002D14FF0FF3070474FF0CE
:105188000000704710F8012B11F8013B012A28BFD5
:105198009A42F7D0D01A7047034613F8012B002A19
:1051A800FBD1181A0138704700F108034FF0FF329D
:1051B8004360C0E9022303610023036070470023B2
:1051C8000361704743684B609A688A609A685160C7
:1051D8009960086103680133036070470A68531CCB
:1051E80030B50AD103695A684A6091608B6059608A
:1051F800086103680133036030BD00F108035C688F
:1052080025689542EFD82346F9E7D0E901210369DB
:105218009160D0E9011251605A68824204BF8268E5
:105228005A6000220261186801381860704700004F
:10523800064A13681968064B19B94FF0FF321A600D
:1052480070471268D268D2685268F8E7FC0C0020F0
:10525800C40D002010B5044628B940F26652094929
:1052680009480AF0CBFD6269084B9A4207D1A06A47
:10527800074B984203D0B0FA80F0400910BD0020D7
:10528800FCE700BFC28E0208DB8E0208E40D002096
:10529800CC0D002010B50E4B1A6850600D4A1268EC
:1052A8008242044607D90C4A10681968BDE81040C4
:1052B8000431FFF793BF094A106819680431FFF7F2
:1052C8008DFF074B1A68A24288BF1C6010BD00BF43
:1052D800F80C00200C0E0020000D0020FC0C002013
:1052E800C40D00202DE9F0430D68002D3DD04B681A
:1052F8005C684C6001F10807BC4204BFCB684B6096
:105308004B680025D3F80CE04FF0020803464868C4
:1053180040684860874204BFC86848604868C468F5
:105328001C6004F134005860206C98601A73E06ABD
:105338001861032A03D1A06A08B183F80C80A06C15
:105348005861606D9861D4F830C06646A6EB0C00D1
:1053580016F8019BB9F1A50FF8D08008A6459883E7
:1053680005F1010503F12003D1D12846BDE8F083FA
:105378002DE9F84F0A9F0C9E884615469B468246A3
:1053880028B940F22D22684968480AF037FD052FF0
:1053980005D940F22E22644965480AF02FFD36B936
:1053A800A80001F0C7FC0646002800F0B080602085
:1053B80001F0C0FC0446002800F0A680AD002A4693
:1053C8000663A521304623F08EFC236B043D1D4463
:1053D80008F1FF3225F0070904F1340108F1090842
:1053E80012F8010F01F8010B107808B19045F7D1B8
:1053F800052F4FF00005B84604F1040628BF4FF00A
:105408000508304684F83D50C4F82C80C4E912855C
:10541800FFF7D5FE04F11800FFF7D1FEC8F1060228
:10542800A261A56524616462C4E9145584F85C50DE
:105438005A465146484601F095FD0B9B206003B142
:105448001C6001F0B1FD3B4B3B4D1A68DFF824812D
:1054580001321A602A68002A5CD12C601B68012B73
:105468002AD13648DFF810A1DFF81091FFF79CFE2B
:105478003348FFF799FE3348FFF796FE3248FFF7A7
:1054880093FE3248FFF790FE3148FFF78DFE5046F5
:10549800FFF78AFE4846FFF787FE2E48FFF784FE8F
:1054A8002D48FFF781FE2D48FFF77EFE2C4BC3F8F1
:1054B80000A02C4BC3F800902B4A2C4913680868AD
:1054C80001331360E26A2364012404FA02F30343FC
:1054D8000B601A4B142000FB02303146FFF772FEB6
:1054E80001F084FDD8F800305BB12B68DB6ABB4261
:1054F80007D21F4B4FF080521A60BFF34F8FBFF394
:105508006F8F2046BDE8F88F304601F0B1FC4FF0B0
:10551800FF34F6E7D8F80030002BCDD12B68DB6AD2
:10552800BB4298BF2C60C7E7C28E0208AC8F020846
:10553800B78F0208800D0020F80C0020040D002011
:10554800180D00202C0D0020400D0020540D0020C7
:10555800680D0020CC0D0020F80D0020E40D00207F
:10556800FC0C0020000D00208C0D0020940D002064
:1055780004ED00E0E00D0020980D0020AC0D0020A7
:1055880038B5044601F010FD0CB9244B1C68251DE4
:105598002846FFF73AFE60B9E06A214B14214143DF
:1055A8005B5833B91F4901220B68824023EA020382
:1055B8000B60A36A1BB104F11800FFF726FE294609
:1055C8001948FFF7FFFD194A136801331360184A99
:1055D80013680133136001F009FD164B1B68A3B172
:1055E8000E4B1B68A34211D1134B1B682BB140F221
:1055F8001E32124912480AF001FC124B4FF0805239
:105608001A60BFF34F8FBFF36F8F38BD01F0CCFC2A
:10561800FFF70EFEBDE8384001F0E8BCF80C0020AA
:10562800040D0020940D0020F80D0020900D00209E
:105638008C0D0020E00D0020880D0020C28E02088D
:105648000C8F020804ED00E0F8B5044688BB4FF45F
:10565800B2621A491A48BDE8F8400AF0CFBB01F017
:10566800A3FC2046FFF7F6FD012805461DD1271D9E
:105678003846FFF7CAFD134AE36A11689D400D4397
:105688001560114A142000FB03203946FFF79AFDE4
:105698003368E26ADB6A9A4207D30C4B4FF08052B8
:1056A8001A60BFF34F8FBFF36F8FBDE8F84001F06A
:1056B8009DBC074E33688342D1D1F8BDC28E020823
:1056C800328F0208940D0020040D002004ED00E044
:1056D800F80C00201FB51A4B1A491B480024CDE9C5
:1056E8000043CDE9024423469622FFF741FE0128F4
:1056F8001AD101F043F9012816D14FF05F0383F363
:105708001188BFF36F8FBFF34F8F104B4FF0FF32ED
:105718001A600F4B18600F4B1C6012F01FFE04B08C
:10572800BDE8104001F0CEBC40B90B490B4840F22F
:10573800516204B0BDE810400AF060BB04B010BD6F
:10574800C00D00204A8F0208DD5A0008C40D002051
:10575800E00D00200C0E0020C28E02084F8F0208B8
:10576800024A136801331360704700BF880D002098
:10577800014B1868704700BF0C0E00202DE9F84F48
:105788003D4B3E4A196811603D4A1268002A6BD1A8
:105798001A6801321A601D68A5B93A4C23681B685B
:1057A8002BB140F2AA72384938480AF027FB384B27
:1057B8002268196821601A60364A13680133136039
:1057C800FFF736FD344C354F2368AB424FF0000BE2
:1057D80011D93A68324BD16A14224A439A58022A9C
:1057E80028BF4FF0010B2F4A1268002A0CBF5846F9
:1057F8000120BDE8F88FDFF88CA0DFF8B090DAF868
:10580800002012681AB94FF0FF322260E1E7DAF897
:105818000020D268D66871688D4201D22160D8E72D
:1058280006F104084046FFF7F0FCB16A19B106F129
:105838001800FFF7EAFCF06AD9F80030012202FAF2
:1058480000F11943164BC9F800104FF0140C4146EB
:105858000CFB0030FFF7B6FC3868F16AC26A914267
:1058680028BF4FF0010BCAE70F4A136801331360D2
:105878004FF0000BB7E700BF0C0E0020080000E057
:10588800880D0020FC0C0020C28E02081A90020825
:10589800000D0020C80D0020C40D0020F80C0020C9
:1058A800040D0020100E0020840D0020940D00200F
:1058B8002DE9F8432E4C23682BB940F28E622D490E
:1058C8002D480AF09BFA01F06FFB2368013B236027
:1058D80023682BB1002401F089FB2046BDE8F8833A
:1058E800264B1B68002BF5D0254D264EDFF8A880E7
:1058F8002B689BB9244C23681BB1244D01262368CF
:105908006BBB224B1C68012CE4D1214B4FF0805219
:105918001A60BFF34F8FBFF36F8FDCE7EB68DC686B
:1059280004F1040904F11800FFF76FFC4846FFF77B
:105938006CFCE26A3168012707FA02F314200B4372
:1059480000FB028049463360FFF73CFC114BE26ADA
:105958001B68DB6A9A42CBD30C4B1F60C6E7FFF784
:105968000DFF00B12E602368013B2360C7E700BF2D
:10597800880D0020C28E02087F900208800D00204A
:10598800CC0D0020940D0020840D0020100E002066
:1059980004ED00E0F80C0020040D002038B50C469A
:1059A800054628B940F23F32214922480AF026FA32
:1059B8002CB94FF450721E491F480AF01FFA1F4BAA
:1059C8001B682BB140F2413219491D480AF016FAFA
:1059D800FFF7C6FE1B4B1A682B681C192CBF012148
:1059E800002193422C600CD961B9FFF761FF38B9E7
:1059F800154B4FF080521A60BFF34F8FBFF36F8F74
:105A080038BD09B9A242F0D2104D28680430FFF71A
:105A1800FCFB40B92A680E49D06A0B680122824013
:105A280023EA02030B602046FFF734FCDDE700BFE2
:105A3800C28E0208E18E0208F48E0208880D00204A
:105A48000C8F02080C0E002004ED00E0F80C00207A
:105A5800940D002038B5054640B9174B4FF08052D9
:105A68001A60BFF34F8FBFF36F8F38BD134B1B689E
:105A78002BB140F2A332124912480AF0BFF9FFF7DE
:105A88006FFE114B1C682C44104D28680430FFF73A
:105A9800BCFB40B92A680E49D06A0B6801228240D3
:105AA80023EA02030B602046FFF7F4FBFFF700FF31
:105AB8000028D2D0D9E700BF04ED00E0880D00200F
:105AC800C28E02080C8F02080C0E0020F80C002071
:105AD800940D002008B5124E124C236813B903F038
:105AE800DDFBF9E7FFF73CFE3568FFF7E1FE002D27
:105AF800F3D001F059FAF368DD68281DFFF785FB3C
:105B0800094A1368013B13602368013B236001F0D5
:105B18006DFA286B01F0ACF9284601F0A9F9DCE729
:105B2800F80D0020900D0020800D00202DE9F04197
:105B380005461746FFF714FE1E4B1B688B4236D8E6
:105B48000026DFF88480344608EB060105EB441094
:105B58000122FFF7C7FB143E16F1780F0444F3D176
:105B6800154B0222196805EB4410FFF7BBFB134BDA
:105B780004441968022205EB4410FFF7B3FB044400
:105B880004220F4905EB4410FFF7ACFB044405EB76
:105B9800441003220B49FFF7A5FB044417B112F088
:105BA8001FFC3860FFF784FE2046BDE8F081002422
:105BB800F8E700BF800D0020FC0C0020000D00203D
:105BC800F80D0020E40D0020680D002038B50D46C2
:105BD800044608B9044B1C6801F0E6F92565BDE8E0
:105BE800384001F003BA00BFF80C002070B51E4B16
:105BF8001A681E4B12B101221A6070BD1A6012F0A9
:105C0800EFFB1B4A1B4E1468A04204D931684B6D48
:105C18001B1B03444B65184B10601C68B4FA84F4D2
:105C2800E4B2C4F11F041423144D6343EB582BB999
:105C380040F6C802124913480AF0E0F8142202FBA1
:105C480004F3E91808334868406848602B449842D0
:105C580004BF43684B6002FB04546368DB6833602D
:105C680033685A6B084BC7E7880D0020100E0020D8
:105C78007C0D0020F80C0020940D0020040D00205D
:105C8800C28E0208578F0208040000E0F8B50446E7
:105C9800284D01F089F904B92C68261D3046FFF714
:105CA800B4FA60B9E06A244B142141435B5833B914
:105CB800224901220B68824023EA02030B60A36A8F
:105CC8001BB104F11800FFF7A0FA1D4F3146384602
:105CD800FFF778FA01F08AF92B68A342194B1B6881
:105CE8001DD18BB1184B1B682BB140F22E521749AE
:105CF80017480AF083F8174B4FF080521A60BFF329
:105D08004F8FBFF36F8FF8BD134A396812689142FD
:105D180001D12B60F7E7BDE8F840FFF767BF002B1C
:105D2800F1D001F041F9FFF783FABDE8F84001F03E
:105D38005DB900BFF80C0020040D0020940D002070
:105D4800E40D0020E00D0020880D0020C28E02081E
:105D58000C8F020804ED00E0800D002070B50D46A0
:105D6800064628B940F6DA02134914480AF046F8FC
:105D7800134C216830461831FFF730FA2068043098
:105D8800FFF743FA40B922680E49D06A0B6801222E
:105D9800824023EA02030B606B1C06D121680A4883
:105DA8000431BDE87040FFF70DBA084B1868284465
:105DB800BDE87040FFF76EBAC28E0208268F02084F
:105DC800F80C0020940D0020E40D00200C0E00209B
:105DD800F8B50D461646074628B940F65912144933
:105DE80014480AF00BF8144C216838461831FFF7AC
:105DF800E9F920680430FFF708FA40B922680F492A
:105E0800D06A0B680122824023EA02030B60012E4C
:105E180006D121680A480431BDE8F840FFF7D2B935
:105E2800084B18682844BDE8F840FFF733BA00BFAC
:105E3800C28E0208268F0208F80C0020940D00205C
:105E4800E40D00200C0E002038B5C368DC682CB9BE
:105E580040F6B4121549164809F0D0FF04F11805A8
:105E68002846FFF7D2F9134B1B68E3B9251D2846CE
:105E7800FFF7CBF91049E26A08680123934003430E
:105E88000B600E4B1420294600FB0230FFF79AF9ED
:105E98000B4BE26A1B68DB6A9A4283BF094B0120FD
:105EA8001860002038BD29460748EFE7C28E02086F
:105EB80070900208880D0020940D0020040D002029
:105EC800F80C0020100E0020CC0D002010B5044660
:105ED80028B940F614220549054809F08FFF054BFB
:105EE8001B682360044B1B68636010BDC28E0208E8
:105EF800408F0208C80D00200C0E002070B50D461A
:105F0800044628B940F61E221449154809F076FFC0
:105F18002DB940F61F221149124809F06FFF01F010
:105F280043F8114B19682B685A1C10D00F4A106897
:105F3800D4E90062864201D091420DD2881A834288
:105F48000AD95B1A13442B602046FFF7BFFF0024D1
:105F580001F04CF8204670BD0124F9E7C28E020812
:105F6800408F02089E8F02080C0E0020C80D0020EA
:105F7800014B01221A607047100E0020054B1B6868
:105F880033B1054B1B68002B0CBF02200020704763
:105F980001207047E00D0020880D00202DE9F04118
:105FA800044600282ED01E4DC36A2A68D26A93423E
:105FB80028D282691B4E002AA1BF2A68D26AC2F180
:105FC800060282611427426907FB03639A4216D1CD
:105FD80000F104084046FFF718F9134AA0B12B68EE
:105FE8001168D86AE062012383400B4313601423CD
:105FF800414603FB0060BDE8F041FFF7E3B82B68BA
:10600800DB6AC362BDE8F081E06A4743F359002BBD
:10601800E5D113680121814023EA01031360DEE71B
:10602800F80C0020040D0020940D0020F8B504465B
:1060380008B90020F8BD204B1B68834205D040F604
:10604800A7521E491E4809F0D9FEE36C2BB940F649
:10605800A9521A491B4809F0D1FEE36CE16AA26C07
:10606800013B9142E364E4D0002BE2D1251D284690
:10607800FFF7CBF8144E154A50B9E76A1421794353
:1060880073582BB913680120B84023EA0003136042
:10609800A36CE362C3F10601A1611168012404FA4B
:1060A80003F008431060142000FB03602946FFF743
:1060B80089F82046BEE700BFF80C0020C28E02080F
:1060C800459002085B900208040D0020940D002002
:1060D800044B1A681AB11968CA6C0132CA64186884
:1060E800704700BFF80C002038B51546026C04460E
:1060F8005AB905680DB1002003E04068FFF796FF24
:106108006560A36B0133A36338BD65B9806822F06D
:10611800DFFDA368226C13446268A3609342EAD34C
:106128002368A360E7E7C06822F0D2FD236CE26829
:1061380021685B421A448A42E2603EBF62689B184B
:10614800E360022DD7D1A36B002BD4D0A36B013B06
:10615800A363D0E7034610B41A6C084662B1D96845
:106168005C681144A142D96024BF1968D960D96814
:106178005DF8044B22F0ACBD5DF8044B704738B5B0
:10618800044600F011FF04F12405A36C002B12DC77
:106198004FF0FF33A36400F029FF00F005FF04F17E
:1061A8001005636C002B13DC4FF0FF336364BDE80C
:1061B800384000F01BBF636A002BE9D02846FFF780
:1061C80043FE08B1FFF7D4FEA36C013BA364DCE7F0
:1061D8002369002BE8D02846FFF736FE08B1FFF701
:1061E800C7FE636C013B6364DBE7000038B50D460E
:1061F800044628B94FF4847219491A4809F0FEFD7B
:1062080000F0D2FED4E90F312268A2604B43D018C7
:106218005B1A13446060E36000204FF0FF33A06313
:106228006364A3649DB923696BB104F11000FFF79F
:106238000BFE012807D10C4B4FF080521A60BFF3B8
:106248004F8FBFF36F8F00F0D1FE012038BD04F1EE
:106258001000FEF7A9FF04F12400FEF7A5FFF2E7FE
:10626800019102081A91020804ED00E0F8B50D4604
:106278001746064628B940F243121349134809F055
:10628800BDFD7DB105FB06F00130543000F052FD34
:10629800044648B940F27F120B490D4809F0AEFD9B
:1062A8002046F8BD2846F0E74DB92060C4E90F65DF
:1062B80001212046FFF79AFF84F85070F0E700F1BB
:1062C80054030360F2E700BF0191020894900208AA
:1062D8004F8F02082DE9FF470F4601921E460446DC
:1062E80028B940F267225749574809F087FD3FB956
:1062F800236C2BB14FF41A725249544809F07EFDB1
:10630800022E08D1E36B012B05D040F269224D49DA
:106318004F4809F073FDFFF731FE38B9019B2BB1E7
:106328004FF41B7247494B4809F068FDDFF8289184
:10633800DFF828814FF0000A00F036FEA26BE36B0D
:106348009A4201D3022E22D1E36C434A43F480736C
:106358001360394632462046FFF7C6FE636A73B1BA
:1063680004F12400FFF770FD01280AD13B4B4FF0E0
:1063780080521A60BFF34F8FBFF36F8F01E0002880
:10638800F4D100F033FE012004B0BDE8F087019D90
:1063980045B900F02BFEE36C2F4A43F400731360F9
:1063A8000020F1E7BAF1000F02D102A8FFF78EFD35
:1063B80000F01CFEFFF7D4F900F0F6FD636C013322
:1063C80004BF00236364A36C013304BF0023A364E8
:1063D80000F00CFE01A902A8FFF790FD58BB00F0E1
:1063E800E3FDA26BE36B9A4214D100F0FFFDE36C6E
:1063F80043F48063C9F80030019904F11000FFF7F5
:10640800ADFC2046FFF7BBFEFFF752FA50B14FF044
:10641800010A91E700F0EAFD2046FFF7B0FEFFF71A
:1064280047FAF4E74FF08053C8F80030BFF34F8FB6
:10643800BFF36F8FEBE72046FFF7A1FEFFF738FAAF
:10644800A9E700BF019102081A91020822910208E7
:1064580072910208B99102080C0000E004ED00E016
:1064680070B50646542000F065FC0446D8B10025F6
:106478000123C0E90F354FF0FF33856380F8506082
:106488004364C0E900558364C0E902551030FEF743
:106498008BFE04F12400FEF787FE2B462A46294688
:1064A8002046FFF717FF204670BD00002DE9F04198
:1064B800884616461D46044628B940F22442264915
:1064C800264809F09BFCB8F1000F07D1236C2BB1CB
:1064D80040F225422049224809F090FC022D08D1BB
:1064E800E36B012B05D040F226421B491D4809F0F9
:1064F80085FC00F05DFEEFF311874FF05F0383F337
:106508001188BFF36F8FBFF34F8FA26BE36B9A4273
:1065180001D3022D1DD12A4641462046FFF7E4FD4E
:10652800A36C013311D1636A0BB9012009E004F1AE
:106538002400FFF789FC0028F7D0002EF5D00120B1
:10654800306087F31188BDE8F081A36C0133A36440
:10655800EBE70020F5E700BF019102081A91020855
:10656800229102087291020870B50D46044628B9B6
:1065780040F2BF422149224809F040FC236C2BB16C
:1065880040F2C3421D491F4809F038FC23683BB953
:1065980063682BB14FF4996218491B4809F02EFC27
:1065A80000F006FEEFF311864FF05F0383F31188C6
:1065B800BFF36F8FBFF34F8FA26BE36B9A421AD270
:1065C800A36B0133A363A36C013310D1636A0BB9C6
:1065D800012009E004F12400FFF736FC0028F7D079
:1065E800002DF5D00120286086F3118870BDA36CBA
:1065F8000133A364ECE70020F6E700BF019102082D
:106608001A9102080F920208289202082DE9FF4702
:106618000E4601929846044628B940F25B52554905
:10662800554809F0EBFB3EB9236C2BB140F25C52A4
:106638005049524809F0E2FBFFF7A0FC38B9019B2A
:106648002BB140F25F524B494D4809F0D7FBDFF8B8
:1066580038914C4F4FF0000A00F0A6FCA36B7BB3B7
:1066680031462046E568FFF775FDB8F1000F18D1EF
:10667800A36B013BA363236813B9FFF729FD60608F
:106688002369BBB104F11000FFF7DEFB012811D12B
:106698003C4B4FF080521A60BFF34F8FBFF36F8FA0
:1066A80008E0636AE5602BB104F12400FFF7CCFB36
:1066B8000028EDD100F09AFC012004B0BDE8F08775
:1066C800019D1DB900F092FC0020F6E7BAF1000F19
:1066D80002D102A8FFF7FAFB00F088FCFFF740F8A8
:1066E80000F062FC636C013304BF00236364A36C95
:1066F800013304BF0023A36400F078FC01A902A8B9
:10670800FFF7FCFB80BB00F04FFCA36B13BB00F052
:106718006DFCE36C43F44073C9F80030236833B967
:1067280000F042FC6068FFF739FC00F05FFC01995B
:1067380004F12400FFF712FB2046FFF720FDFFF7C6
:10674800B7F870B94FF080533B60BFF34F8FBFF37A
:106758006F8F06E000F04AFC2046FFF710FDFFF7B8
:10676800A7F84FF0010A77E72046FFF708FDFFF783
:106778009FF8A9E7019102081A910208B690020849
:10678800B991020804ED00E00C0000E0F8B50F46EE
:106798001646044628B940F215621D491D4809F0FD
:1067A8002DFB3FB9236C2BB140F2166218491A48E9
:1067B80009F024FB00F0FCFCEFF311854FF05F03B8
:1067C80083F31188BFF36F8FBFF34F8FA06BB8B1FE
:1067D80039462046FFF7BEFCA36B013BA363636CFD
:1067E800013310D123690BB9012009E004F110002D
:1067F800FFF72AFB0028F7D0002EF5D001203060E3
:1068080085F31188F8BD636C01336364ECE700BF5E
:10681800019102081A910208B690020810B50446C0
:1068280028B94FF4D4620549054809F0E7FA00F0A1
:10683800BBFBA46B00F0DAFB204610BD01910208F7
:106848001B91020810B5044628B940F6070205490D
:10685800054809F0D3FAE06BA36BC31A58425841B4
:1068680010BD00BF019102081B91020830B5074A0C
:10687800002352F8335002EBC3041DB942F8331019
:10688800606030BD01330A2BF3D1FAE7B429012047
:1068980070B504460D46164600F086FB636C01335E
:1068A80004BF00236364A36C013304BF0023A36403
:1068B80000F09CFBA36B2BB93246294604F1240057
:1068C800FFF786FA2046BDE87040FFF758BC000085
:1068D800F8B5134C00F068FB2568EDB9114F124E5E
:1068E8003846FEF761FC3046FEF75EFC0F4B1F6032
:1068F8000F4B2A460C2114201E60FFF7B7FC2060BE
:1069080028B940F21A320B490B4809F077FA206887
:1069180010B10A49FFF7AAFFBDE8F84000F066BBCE
:10692800480E00201C0E0020300E0020140E0020FF
:10693800180E0020839202089D920208A99202086C
:10694800914208B5416000610AD8D21A83699A4217
:106958000DD2084B011D1868FEF740FC002008BD49
:106968009A4201D2994202D2011D034BF3E701205A
:10697800F5E700BF180E0020140E00201FB5FFF722
:10698800A7FF0E4B1B684BB90D480E494FF4877291
:1069980009F034FA002005B05DF804FB0023012259
:1069A8000092CDE9023301934FF4967206490748E5
:1069B800FEF7DEFC0028E7D0EDE700BF480E002018
:1069C8004F8F020883920208F79202080D6B0008A5
:1069D8002DE9F041804617461E460D4699B12C20F8
:1069E80000F0A8F9044658B1FFF772FF069BC4F8F7
:1069F8000080C4E9065726626362201DFEF7DFFBAC
:106A08002046BDE8F0814FF49B720349034809F022
:106A1800F5F92C46F4E700BF83920208DB920208DE
:106A28002DE9FF410D4690461F46064628B940F21B
:106A380041121049104809F0E1F9104C206880B162
:106A4800052DCDE9015803960EDCFFF797FA0023D0
:106A5800022808BF0A9A206818BF1A4601A9FFF73A
:106A680039FC04B0BDE8F08100233A4601A9FFF7DC
:106A78001DFDF6E783920208FF920208480E0020E7
:106A88002DE9F7431B4D1C4FDFF874802B681A68FB
:106A980032B91A4A11682960136003B0BDE8F0835F
:106AA800DB68DC681E6804F104094846FEF7ADFBA4
:106AB800636A20469847E369012BE7D1A369334409
:106AC8009E4206D26360246149462868FEF786FB29
:106AD800DCE700230093324619462046FFF7A0FF63
:106AE8000028D3D14FF43F723946404609F086F961
:106AF800CCE700BF140E002083920208180E002075
:106B0800AE9202082DE9F04F654F664E89B0BB463C
:106B18003A681368002B44D0D268D2F800A0624CBF
:106B28000393FEF71DFEFEF723FE2268DFF88C8133
:106B3800039B90420546A14635D2FFF7A1FF256089
:106B4800FEF7B6FE00231A4605A9D8F80000FFF79D
:106B58005DFD0028DCD0059B002BF3DB079C6369F7
:106B680013B1201DFEF751FBFEF702FED9F80030E5
:106B78009842054601D2FFF783FF059BC9F80050EC
:106B8800092BDFD8012202FA03F313F4047A75D132
:106B980013F0C70F4DD19B06D4D5204600F068F9F5
:106BA800D0E79A46BBE7206043B382453FD8FEF75B
:106BB8007FFEDBF80030DB68DC68201DFEF725FB74
:106BC800E369012B16D1A16953462A465144204650
:106BD800FFF7B6FE01280DD100230093524619464F
:106BE8002046FFF71DFF28B940F2931231462F487F
:106BF80009F004F9636A20469847A3E72C4B1B6801
:106C08001A68B2FA82F25209AAEB0501D8F8000014
:106C1800FFF73EFEFEF74CFE002893D1254B4FF0C0
:106C280080521A60BFF34F8FBFF36F8F8AE700223D
:106C3800EAE7A169069B2A4619442046FFF780FE29
:106C480001287FF47FAF636A20469847E369012BE8
:106C58007FF478AFA2690699CDF800A00A4453469C
:106C680051462046FFF7DCFE00287FF46BAF4FF457
:106C7800287231460D4809F0C1F863E7069BA36105
:106C88002BB940F2B72231460B4809F0B7F8A16991
:106C98002B462A4629442046FFF752FE52E700BFFA
:106CA800140E002083920208440E0020AE920208BF
:106CB800180E002004ED00E0B6920208480E0020ED
:106CC80010B5044628B94FF453720549054809F030
:106CD80095F800F069F9246A00F088F9204610BD9B
:106CE80083920208FF92020810B5104B1A6882427C
:106CF80019D35C681919884201BF416818460919F7
:106D0800596041684418A24208D1094C2468A2423B
:106D180004D052680A4442601A68126802609842B5
:106D280018BF186010BD1346E0E700BF9CAA0020FA
:106D38004C0E00202DE9F8430446FEF711FD4249A8
:106D4800424E0B68FBB9424A424D50071FBF0732FB
:106D5800414B22F007029B1A08BF49F640431344EF
:106D6800083B23F00703002068602A60C3E900009D
:106D7800981A0B60C2E90030384B1860384B18601D
:106D88004FF00043336033681C4205D0FEF790FD96
:106D980002F006F9002748E0002CF7D00834620713
:106DA8001CBF24F007040834002CEFD02C4B1A68C1
:106DB800A2429846EAD3274B1D686A68A24202D2CB
:106DC8002A68002A3CD10A68AA42DFD02A681F68CC
:106DD8001A606B681B1B102B07F1080711D905EB0C
:106DE800040919F0070F04D0E8221E491E4809F0CB
:106DF80005F86B681B1BC9F8043048466C60FFF740
:106E080073FF16496A68D8F8003008689B1A8342ED
:106E180038BF0B60C8F80030336813436B60002339
:106E28002B60FEF745FD002FB2D07B0705D04FF44D
:106E380094720C490D4808F0E1FF3846BDE8F88324
:106E48002B461546B9E700BF4C0E002090AA00203B
:106E5800500E00209CAA002090AA002098AA00208A
:106E680094AA00200693020831930208729302083C
:106E780038B5044680B3194D50F8041C2A681142ED
:106E880005D14FF49E721649164808F0B7FF54F81A
:106E9800083C2BB140F23D121149134808F0AEFFEF
:106EA80054F8043C2A68134216D054F8081C99B9BF
:106EB80023EA020344F8043CFEF752FC0B4A54F858
:106EC800043C1168A4F108000B441360FFF70CFFA1
:106ED800BDE83840FEF7ECBC38BD00BF90AA0020E2
:106EE80006930208AF930208E093020894AA0020D0
:106EF800014B1868704700BF94AA00200648006834
:106F0800006880F3088862B661B6BFF34F8FBFF39D
:106F18006F8F00DF00BF000008ED00E0DFF80C0015
:106F2800016841F4700101607047000088ED00E0DD
:106F380008B5094B1B68013305D040F20712074911
:106F4800074808F05BFF4FF05F0383F31188BFF336
:106F58006F8FBFF34F8FFEE70000002000940208F8
:106F68002E9402084FF0807340E90213054B40F855
:106F78000C3C6FF0020340F8202C40F8243C4438C5
:106F8800704700BF396F0008064B19680868B0E8F9
:106F9800F04F80F30988BFF36F8F4FF0000080F344
:106FA80011887047F80C00204FF05F0383F31188B5
:106FB800BFF36F8FBFF34F8F084A13680133012B5C
:106FC80013600AD1064B1B6813F0FF0F05D040F27F
:106FD8009F120449044808F011BF704700000020C0
:106FE80004ED00E0009402084894020810B5084C2B
:106FF80023682BB94FF4D3720649074808F0FEFE00
:107008002368013B23600BB983F3118810BD00BFCF
:1070180000000020009402087D940208EFF3098024
:10702800BFF36F8F144B1A681EF0100F08BF20EDC6
:10703800108A20E9F04F10604DF8043D4FF05F00D2
:1070480080F31188BFF34F8FBFF36F8FFEF7CEFD2C
:107058004FF0000080F3118808BC19680868B0E890
:10706800F04F1EF0100F08BFB0EC108A80F30988AB
:10707800BFF36F8F704700BFF80C002008B5EFF31F
:1070880011834FF05F0282F31188BFF36F8FBFF354
:107098004F8FFEF773FB18B1034B4FF080521A6005
:1070A800002383F3118808BD04ED00E0034B044A74
:1070B8001A60072243F8042C704700BF14E000E070
:1070C8003F90020013B52E4C2E4A2168914205D1FB
:1070D80040F23D122C492D4808F090FE22682C4BB6
:1070E8009A4205D14FF49F7227492A4808F086FE34
:1070F800294B1A78D2B20192FF221A701B78274ABC
:10710800DBB28DF803309DF8033003F05F03137092
:10711800234B07221A6000219DF80300000602F1A4
:10712800FF3423D401B11A601A68120202F4E06233
:107138001A60019B184ADBB213701A4B1A6842F4A2
:107148007F021A601A6842F07F421A60FFF7AEFFAA
:10715800154B00221A60FFF7E1FE144A136843F04A
:1071680040431360FFF7CAFEFFF7E2FE9DF80320D5
:107178005200D2B28DF8032001212246CCE700BF8D
:1071880000ED00E071C20F4100940208FB94020870
:1071980070C20F411E95020800E400E0A4AA002076
:1071A800A8AA002020ED00E00000002034EF00E055
:1071B80008B5EFF305830F2B0BD90E4A9B5C0E4ADB
:1071C80012789A4205D94FF438720C490C4808F0E5
:1071D80015FE0C4B0C4A1B68126803F4E0639342DB
:1071E80007D94FF43C7205490848BDE8084008F043
:1071F80005BE08BDF0E300E0A4AA00200094020840
:107208008F9402080CED00E0A8AA0020B9940208A7
:1072180008B501214FF4807000F03EFC00214FF4C6
:107228008070BDE8084000F037BC000043680A7968
:1072380023F0407323F4807343EA02230A6813435C
:107248004360D1E9032313438A6810B51343846864
:10725800084A224013434A7943EA420383600A7D7D
:10726800C36A013A23F47003D2B243EA0253C362F9
:1072780010BD00BFFDF7FFC0002303600371437119
:10728800C0E90233036101230375704710B5D0E9E3
:107298000032064913434C68054A2240134382686A
:1072A8001343C26813434B6010BD00BF0023014065
:1072B800E030FCFF0023C0E90033C0E90233704727
:1072C800836819B143F001038360704723F0010319
:1072D800FAE7092970B51BD9A1F10A04C56804EBBE
:1072E80044040726A64025EA060503FA04F42C43BD
:1072F800C460062A18D8013A436B02EB82021F24A5
:10730800944023EA040301FA02F21A43426370BD6F
:10731800056901EB41060724B44025EA040503FA90
:1073280006F42C430461E4E70C2A0CD8073A036BF3
:1073380002EB82021F24944023EA040301FA02F2BA
:107348001A430263E3E70D3AC36A02EB82021F2481
:10735800944023EA040391401943C162D7E7836844
:1073680043F0804383607047C06C80B27047036805
:10737800194214BF0120002070470000044B5A68CE
:1073880011B110435860704722EA0000FAE700BFC5
:10739800002004E0044BDA6811B11043D86070474C
:1073A80022EA0000FAE700BF002004E0036823F0A7
:1073B800010303600023036043608360C3600361CB
:1073C800212343612A4B984203D13D2243F8082CDC
:1073D8007047284B984204D14FF4746243F8202C2C
:1073E8007047254B984204D14FF4741243F8382C57
:1073F8007047224B984204D14FF0746243F8502CE6
:1074080070471F4B984203D11E4A43F8642C7047BB
:107418001D4B984203D11D4A43F87C2C70471C4BE6
:10742800984203D11B4A43F8942C70471A4B984250
:1074380004D14FF03D5243F8AC2C17E0174B98425B
:10744800C3D0174B9842C7D0164B9842CCD0164B96
:107458009842D1D0154B9842D6D0154B9842DAD0E5
:10746800144B9842DED0144B9842E2D0704700BFCC
:1074780010600240286002404060024058600240AC
:10748800706002403D00002088600240400F0020EC
:10749800A060024000003D20B86002401064024035
:1074A800286402404064024058640240706402400C
:1074B80088640240A0640240B86402400368134A2A
:1074C80010B51A40CC680B6823434C6923438C6978
:1074D8002343CC6923430C6A23434C6A23438C6AB5
:1074E80023434C6B23438C6B234313430360D1E941
:1074F8000B344269234322F00702134343610B69AB
:1075080043604B6883608B68C36010BD3F801CF08C
:10751800036819B143F001030360704723F00103C6
:10752800FAE741607047406880B27047006800F031
:107538000100704710B50A4B0A4C0B4AA04294BF91
:10754800184610468B004CBF4368036821F0F021B1
:1075580021F08211194214BF0120002010BD00BF84
:10756800006002400F6402400064024010B5084BFE
:10757800084A094CA0428CBF1846104621F0F02357
:1075880023F082138A004CBFC360836010BD00BF24
:1075980000640240006002400F6402400B0612D5EE
:1075A800436952B143F080038029436104D00368E2
:1075B80001F01E0119430160704723F08003802900
:1075C800436104D170478029F6D0002AEFD10368BF
:1075D80001F01E0123EA0101EDE70000114B124AF8
:1075E80010B5124CA04288BF1A4621F0F02323F0B0
:1075F800C31393B1006800EAD12000F01E0388008D
:107608004CBF5068106821F0F02121F08211084029
:1076180002D0181C18BF012010BD436903F0800375
:10762800EDE700BF00640240006002400F640240C2
:10763800FFF79CBF0268837910B5D243002B2FD087
:107648001B4B19680A401A605A68016822EA01024D
:107658005A600279046802F1804202F59E3211688C
:10766800214311609A68016822EA01029A60016860
:10767800DA6822EA0102DA6042790168102A07D141
:107688009A680A439A60DA6801680A43DA6010BDAA
:1076980002F1804303F59E331A680A431A60F6E73D
:1076A800037903F1804303F59E3319680A40F5E72F
:1076B800003C0140034B5B69034214BF01200020DA
:1076C800704700BF003C0140014B5861704700BF44
:1076D800003C0140FFF7EEBF014B5861704700BF07
:1076E800003C0140F0B50022012603250B6806FA8C
:1076F80002FC3CEA03032ED15400076805FA04F3A0
:10770800DB431F4007600F79D0F800E0A74047EA45
:107718000E0707600F79013F012F11D887683B409A
:1077280083604B798768A3403B438360436823EABF
:107738000C0343608B79476893409BB23B4343609B
:10774800C36805FA04F723EA0703C360CB79C7685F
:10775800A3403B43C3600132102AC7D1F0BD4FF6A6
:10776800FF7303600023037143718371C371704712
:107778000369194214BF0120002070470183704734
:10778800418370470AB1018370474183704710B540
:1077980001F00703C90800EB81009B00016A0F2470
:1077A8009C4021EA04010162016A9A400A4302628C
:1077B80010BD000008B5144B98420BD101214FF4BD
:1077C800001000F05DF900214FF40010BDE80840FA
:1077D80000F056B90D4B984208D101214FF48000B2
:1077E80000F04EF900214FF48000EFE7084B984273
:1077F80008D101214FF4000000F042F900214FF4B4
:107808000000E3E708BD00BF0054004000580040F6
:10781800005C00407FB5868826F03F0604463604A3
:1078280068460D46360C00F0B7F8029A2949B2FBB3
:10783800F1F188B20643A6802388274E23F001037E
:107848001B041B0C23802B68B3421ED85B0001303D
:10785800B2FBF3F39BB2042B80B238BF042320841D
:10786800A383238843F0010323802388AA88698996
:1078780023F481630A4323F0020313432380AB8973
:107888002A891343238104B070BDEE884BF6FF703C
:1078980086421BBF1920434303EB4303B2FBF3F3B8
:1078A80015BF9BB2B2FBF3F343F480439BB2C3F31F
:1078B8000B020AB943F001034FF496724A434FF49E
:1078C8007A7192FBF1F2013292B243F400432284BE
:1078D800C6E700BF40420F00A086010022B141F078
:1078E800010189B20182704701F0FE01F9E70388BE
:1078F80019B143F480630380704723F480631B0449
:107908001B0CF8E701827047008AC0B27047838871
:1079180019B143F400638380704723F400631B04A8
:107928001B0CF8E7838819B143F4805383807047B0
:1079380023F480531B041B0CF8E7838812B1194306
:107948008180704723EA0101FAE782B0002300939F
:1079580001930B0F01900093009B21F07F4153B1DD
:10796800019B14330193019B1B680B4214BF012038
:10797800002002B07047019B090C1833F2E7C94395
:1079880089B2818270470000024B4AF6AA221A6027
:10799800704700BF0030004010B51D4A936803F0DF
:1079A8000C03042B1AD0082B1AD01A4B184A036060
:1079B80093681949C3F30313CC5C0368E34043603D
:1079C8009468C4F382240C5D23FA04F484609268FA
:1079D800C2F342328A5CD340C36010BD0F4BE5E767
:1079E8005468516852686302C2F3881201F03F017B
:1079F8004CBF0A4B074BB3FBF1F35343044A52689D
:107A0800C2F3014201325200B3FBF2F3CEE700BFEA
:107A1800003802400024F4000400002000127A001C
:107A2800044B1A6B11B110431863704722EA000027
:107A3800FAE700BF00380240044B5A6B11B11043FB
:107A48005863704722EA0000FAE700BF0038024096
:107A5800044B1A6C11B110431864704722EA0000F5
:107A6800FAE700BF00380240044B5A6C11B11043CA
:107A78005864704722EA0000FAE700BF0038024065
:107A8800044B1A6A11B110431862704722EA0000C9
:107A9800FAE700BF00380240044B5A6A11B110439C
:107AA8005862704722EA0000FAE700BF0038024037
:107AB8004209012A074B07D11B6800F01F0023FA6F
:107AC80000F000F001007047022A0CBF1B6F5B6FCB
:107AD800F3E700BF00380240024A536F43F0807357
:107AE800536770470038024008B5274B98420BD1BE
:107AF80001214FF48050FFF7CFFF00214FF4805051
:107B0800BDE80840FFF7C8BF204B98420BD10121C0
:107B18004FF48040FFF7B4FF00214FF48040BDE8E8
:107B28000840FFF7ADBF1A4B984208D101214FF426
:107B38000040FFF7A5FF00214FF40040EFE7154B89
:107B4800984208D101214FF40050FFF7A5FF00210A
:107B58004FF40050D4E7104B984208D101214FF45C
:107B68008010FFF799FF00214FF48010C8E70B4BF6
:107B7800984208D101214FF40010FFF78DFF002132
:107B88004FF40010BCE708BD003001400038004049
:107B9800003C0040003401400050014000540140C6
:107BA800038810B503F441524C880B8823438C8812
:107BB8002343CC8823430C8923434C8923438C8952
:107BC8002343CC89234313430380838B23F400632B
:107BD8001B041B0C83830B8A038210BD038819B115
:107BE80043F040030380704723F040031B041B0C41
:107BF800F8E7838812B119438180704723EA0101AD
:107C0800FAE730B5048C24F001042404240C04841D
:107C1800048B058C24F0F304240442EA0313240C97
:107C28001C4325F00A031B041B0C41F00101A4B2FC
:107C38000B430483038430BD30B5048C24F0100456
:107C48002404240C0484058B048C120242EA0333B6
:107C580024F0A00225F4407512042D05120C2D0DF8
:107C680042EA01111D4341F01001ADB289B205830A
:107C7800018430BD1C4A038890429BB212D002F5A1
:107C8800806290420ED0B0F1804F0BD0A2F58032C6
:107C9800904207D002F58062904203D002F58062DC
:107CA800904203D14A8823F0700313430F4A90424D
:107CB80008D002F5806290421FBF23F440730A89FE
:107CC8009BB2134303804B68C3620B880385064B42
:107CD800984203D003F58063984201D18B7A0386DA
:107CE80001238382704700BF00000140001000405C
:107CF80000234FF0FF32C0E90032038183727047DE
:107D0800018582827047038819B143F0010303801B
:107D1800704723F001031B041B0CF8E7038C23F0C6
:107D280001031B041B0C038470B5038C8288048B2D
:107D38000D884E8824F073042404240C2C4323F06B
:107D480002038D891B0435431B0C2B430D4DA842A0
:107D580092B203D005F58065A8420DD1CD894E8A2F
:107D680023F008032B438D8823F004032B430D8A4B
:107D780022F4407235432A43828004838A6842632E
:107D8800038470BD00000140038C23F010031B0422
:107D98001B0C038470B5038C8488028B0D884E8875
:107DA80022F4E6421204120C42EA052223F02003D0
:107DB8008D891B0435431B0C43EA0513114DA8425A
:107DC800A4B292B29BB203D005F58065A84213D144
:107DD800CD894E8A23F0800343EA05134FF6BF7519
:107DE8001D408B8845EA03130D8A24F4406435430B
:107DF80044EA85049BB2A4B2848002838A688263C1
:107E0800038470BD00000140038C23F480731B04BD
:107E18001B0C038470B5038C8288848B0D884E8874
:107E280024F073042404240C2C4323F400738D8958
:107E38001B0435431B0C43EA0523114DA84292B29B
:107E48009BB203D005F58065A84213D1CD894E8A2F
:107E580023F4006343EA05234FF6FF351D408B8862
:107E680045EA03230D8A22F44052354342EA0512BB
:107E78009BB292B2828084838A68C263038470BD95
:107E880000000140038C23F480531B041B0C038463
:107E980070B5038C8488828B0D884E8822F4E64264
:107EA8001204120C42EA052223F400538D891B04A4
:107EB80035431B0C43EA05330A4DA842A4B292B2DB
:107EC8009BB203D005F58065A84205D10D8A24F43C
:107ED800804444EA8514A4B2848082838A68026458
:107EE800038470BD0000014041637047816370479F
:107EF800C163704701647047038B23F008031B04B8
:107F08001B0C194301837047038B23F400631B0484
:107F18001B0C43EA012189B201837047838B23F04C
:107F280008031B041B0C194381837047838B23F4BC
:107F380000631B041B0C43EA012189B2818370474B
:107F480000230122038043808280C380038170471D
:107F5800406B7047806B7047C06B7047006C704710
:107F6800038B23F00C031B041B0C0383038B1943A3
:107F780001837047038B23F440631B041B0C0383AA
:107F8800038B43EA012189B201837047838B23F075
:107F98000C031B041B0C8383838B19438183704759
:107FA800838B23F440631B041B0C8383838B43EA7A
:107FB800012189B281837047F8B50E460D88B288D1
:107FC8004988338935B9FFF71CFEF188BDE8F840C8
:107FD800FFF7C6BF042D06D1FFF72EFEF188BDE8D6
:107FE800F840FFF7C7BF082D058C1CD125F4807514
:107FF8002D042D0C0584878B058CBFB227F0F30761
:108008003A43ADB242EA031325F4206242F4807287
:1080180042EA01219BB289B283830184F188BDE8D9
:10802800F840FFF7B3BF25F480552D042D0C0584C7
:10803800878B058C25F4005527F440776D043F05A0
:108048001B036D0C3F0D45F4805543EA02233B4367
:1080580045EA01319BB289B283830184F188BDE886
:10806800F840FFF79DBFB0F8443021B143F4004316
:10807800A0F844307047C3F30E03F9E7838912B1BF
:1080880019438181704723EA0101FAE7038A1942FB
:1080980014BF012000207047038A828911EA030077
:1080A80092B203D00A4214BF012000207047C9438E
:1080B80089B201827047FFF7E1BF000030B5038A3B
:1080C800CA889BB223F440531343038283890D4625
:1080D80023F4B0528B8809890B43698922F00C027A
:1080E8000B4313438381838AAA899BB223F4407389
:1080F800134385B0838204466846FFF74DFC1A4B4C
:108108009C4203D003F580639C4222D10399A28943
:108118001923100403FB01F3A28929684FF06405B1
:108128004CBF490089001204B3FBF1F1B1FBF5F330
:108138004FEA031005FB13130DD5DA003232B2FBF8
:10814800F5F202F0070242EA00039BB2238105B070
:1081580030BD0299DBE71B013233B3FBF5F303F0C3
:108168000F030343F1E700BF00100140838919B1F1
:1081780043F400538381704723F400531B041B0C02
:10818800F8E7C1F30801818070478088C0F30800D0
:108198007047838A12B119438182704723EA01012B
:1081A800FAE710B5C1F3421401F01F03012C4FF098
:1081B800010101FA03F105D10C3003683AB1194302
:1081C800016010BD022C0CBF10301430F5E723EA13
:1081D8000101F5E7C94389B201807047C1F3421232
:1081E80010B5012301F01F04012A03FA04F30DD18D
:1081F80082891340028892B26BB10123090A03FAFB
:1082080001F10A4214BF1846002010BD022A0CBF13
:10821800028A828AEDE71846F7E7000040F0BF605F
:10822800024B40F40030D860704700BF00ED00E01A
:1082380010B5C378027803B3154BD9684378C9439E
:10824800C1F30221C1F10404E4B2A340DCB20F235C
:1082580043FA01F183780B400E4923430A441B017A
:10826800DBB282F8003303780122580903F01F03B8
:1082780002FA03F341F8203010BD5309012102F03E
:108288001F0201FA02F22033024941F82320F3E7E2
:1082980000ED00E000E100E010B501F0030301F09B
:1082A800FC0101F1804101F59C319B008A680F2493
:1082B8009C4022EA04028A608A68984010438860D9
:1082C80010BD08B50BF050FB00F09EFEFDF702FA5A
:1082D8000BF084FB012100200BF07AFB01210846FA
:1082E8000BF076FBFEE700002DE9F0411E4E3578D5
:1082F800C5BB1E4C01214FF48040FFF79DFB0127B1
:108308000623A57020460D252370E7706570FFF7DA
:108318008FFF0723204623706570FFF789FF082326
:10832800204623706570FFF783FF092320462370DA
:108338004FF00A086570FFF77BFF0523204663703E
:1083480084F80080FFF774FF1723204623706570B8
:10835800FFF76EFF2823204684F801802370FFF77B
:1083680067FF3770BDE8F081B0AA0020ACAA0020F2
:10837800704708B50120FFF7AFF9FFF7F9FF08BD0F
:10838800704708B50220FFF7A7F9FFF7F9FF08BD06
:10839800704708B50420FFF79FF9FFF7F9FF08BDFC
:1083A800704708B50820FFF797F9FFF7F9FF08BDF0
:1083B80008B51020FFF790F90DF088FB08BD70474D
:1083C800704770477047704708B52020FFF782F95B
:1083D800012804D12020FFF77FF9FFF7F0FF4020A4
:1083E800FFF778F9012804D14020FFF775F9FFF766
:1083F800E7FF8020FFF76EF9012804D18020FFF7FE
:108408006BF9FFF7DEFF4FF48070FFF763F901287F
:1084180005D14FF48070FFF75FF9FFF7D3FF4FF4F2
:108428000070FFF757F9012805D14FF40070FFF7E6
:1084380053F9FFF7C8FF08BD70477047704770478A
:1084480008B54FF48060FFF745F9012805D14FF4CE
:108458008060FFF741F9FFF7EFFF4FF40060FFF787
:1084680039F9012805D14FF40060FFF735F918F004
:1084780083FF4FF48050FFF72DF9012805D14FF401
:108488008050FFF729F9FFF7D8FF4FF40050FFF7A6
:1084980021F9012805D14FF40050FFF71DF910F01C
:1084A80037FD4FF48040FFF715F9012805D14FF447
:1084B8008040FFF711F9FFF7C1FF4FF40040FFF7C5
:1084C80009F9012805D14FF40040FFF705F9FFF736
:1084D800B6FF08BD4FF44070FFF7A0BEFEF7CEBD53
:1084E80070471EF0040F0CBFEFF30880EFF309800C
:1084F80000F002B8704700002DE9F84FD0E900BA43
:10850800D0E90298D0E90476D0E9065434493548D0
:1085180007F0B1FE5A463449324807F0ACFE5246DD
:108528003249304807F0A7FE4A4631492D4807F03E
:10853800A2FE42462F492B4807F09DFE3A462E4997
:10854800284807F098FE32462C49264807F093FE43
:108558002A462B49234807F08EFE224629492148FE
:1085680007F089FE284B29491A681E4807F083FE40
:10857800274B28491A681B4807F07DFE264B2749D8
:108588001A68184807F077FE254B26491A681548D7
:1085980007F071FE244B25491A68124807F06BFE54
:1085A8000021084600F032F90021012000F02EF9E0
:1085B8000021022000F02AF90021032000F026F90A
:1085C8000BF03AFA012102200BF002FA01210420F3
:1085D8000BF0FEF98E21164807F048FCFEE700BFB5
:1085E80041950208E55B0108579502086095020865
:1085F80069950208729502087B950208859502081C
:108608008E9502089795020838ED00E0A1950208BA
:1086180028ED00E0AC9502082CED00E0B7950208C3
:1086280030ED00E0C29502083CED00E0CD9502086F
:10863800D8950208002108B5084600F0E7F800219F
:10864800012000F0E3F80021022000F0DFF800210B
:10865800032000F0DBF80BF0EFF9012102200BF00A
:10866800B7F9012104200BF0B3F9A121014807F063
:10867800FDFBFEE7D8950208002108B5084600F082
:10868800C5F80021012000F0C1F80021022000F007
:10869800BDF80021032000F0B9F80BF0CDF9012155
:1086A80002200BF095F9012104200BF091F9B52176
:1086B800014807F0DBFBFEE7D8950208002108B562
:1086C800084600F0A3F80021012000F09FF80021DF
:1086D800022000F09BF80021032000F097F80BF02F
:1086E800ABF9012102200BF073F9012104200BF0F2
:1086F8006FF9C921014807F0B9FBFEE7D8950208D0
:1087080070470CF03DB800002DE9F0413C4F3C7833
:108718008AB0002C70D13B4DDFF8EC8028602B68C4
:108728001B5901215868FFF77BF92B681B59012158
:10873800D869FFF78DF96846FFF711F802238DF81D
:1087480004308DF805302B681A5952698DF80620C7
:108758001A59D26800921B5969469868FEF7C2FFF9
:108768002B681B591A7E198A9868FFF710F82B682E
:108778001A59D26A03921A590026128EADF80820A7
:10878800ADF81060ADF80A608DF812601B5902A9A7
:10879800186AFFF76FFA2B68CDF8148007961A59F4
:1087A800928CADF820204FF48072ADF824201B592C
:1087B80005A9DA6B186A90472B681B5908211A6CAF
:1087C800186A90472B681B590121986AFEF7E2FD49
:1087D8002B681B590121186A0434FFF744FC102C3C
:1087E8009DD12B689B590121186A0436FFF78BFA33
:1087F800102EF6D101233B700AB0BDE8F08100BF0E
:10880800B1AA0020042A01206000010070B52DEDF6
:10881800028B2C4B1B7805460C46002B4FD00328A7
:1088280004D9CE222849294807F0E8FA284E3268A8
:1088380052F82520127852BB07EE904A9FED257A10
:108848009FED258AFBEEC87A67EE877A9FED237A3B
:1088580027EE888A27EE877AA7EE278A0FF0E6F8B0
:1088680088EE000AF7EE007AB4EE670AF1EE10FA25
:10887800C8BFB0EE670ADFED1A7A20EE270ABCEE11
:10888800C00A10EE103A9CB2164B43F825403368E4
:1088980053F825305A6B186A1B78BDEC028B012BF4
:1088A80001BF45F208214C434FF6FF73B4FBF3F4C4
:1088B8000ABF0919210A89B2BDE870401047BDEC0A
:1088C800028B70BDB1AA00203099020849990208AC
:1088D800042A0120000070425839B43D388D23BA6B
:1088E80000FF7F47B4AA002003282DE9FF41044672
:1088F800884617461E4605DD4FF484721749184806
:1089080007F07CFA01A8FFF7F3F9164DB8F1000F4C
:1089180018D00423144A92FBF7F292B2ADF804304F
:1089280002922B6853F8243001A9186AFFF7A2F9BC
:108938002B6853F8243031465A6B186A904704B0B4
:10894800BDE8F0812B6853F82420D26A029253F8CC
:1089580024301B8EADF80430E3E700BF30990208DD
:1089680049990208042A0120005900012DE9F84319
:10897800134FDFF85480DFF8549000243B6853F815
:1089880024301E78AEB958F8245039F8142040F233
:10899800757301212846FFF7A7FF3220FDF75AF823
:1089A8002846334632463146FFF79EFF9620FDF7AC
:1089B80051F80134042CE1D1024B1878BDE8F88352
:1089C800042A0120B1AA00201098020882990208FE
:1089D8007320704708B5FCF7CBFE1E4B5A698242DC
:1089E80036D29A6993ED007A9FED1B6A9861821AD4
:1089F80007EE902AF8EE476AF8EE677A66EE866A1E
:108A080000F5FA7086EEA77A5861BCEEC77A17EEC1
:108A1800102A93ED017A9A81F8EE476A66EE866A23
:108A280086EEA77ABCEEC77A17EE102A93ED027A83
:108A3800DA81B8EE477A27EE067AC7EE276AFCEEA7
:108A4800E66A16EE902A1A820022C3E900229A608A
:108A580008BD00BF48AB002000007A4400B51C4E9A
:108A68001C4D89B033681C4A93422CD09B686846D9
:108A780098470028F6D19DF80130184C1B0955F885
:108A8800230078B1FDF7CAFE10B163680133636053
:108A98009DF80100000902230022694655F82000CC
:108AA800FDF718FC9DF801300D4A1B0952F82310F8
:108AB80019B152F823306846984723680133236078
:108AC800FFF788FFCEE70A20FCF7C4FFCAE700BF1C
:108AD8004400002008AB00204800002048AB0020DC
:108AE800C4AA002000B5124C124D89B0264623684E
:108AF800AB4219D0104800234FF0FF326946006896
:108B0800FDF784FD0128F2D1336868465B68984711
:108B180030B10A4A936801339360FFF75BFFE6E7D9
:108B28000A20FCF797FFEFE70A20FCF793FFDEE740
:108B3800440000204800002064AB002048AB00201F
:108B48007FB5124D2C78F4B9224620213C20FDF740
:108B58008DFB0F4B0F491860022623469622CDE95C
:108B68000244019400960C48FCF702FC2346CDE928
:108B78000244CDE900644FF4967208490848FCF7AE
:108B8800F7FB01232B7004B070BD00BF04AB0020BD
:108B980064AB00208A990208ED8A000892990208BD
:108BA800658A0008014B1878704700BF04AB0020A5
:108BB80038B5094C54F82020054622B16E220749E1
:108BC800074807F01BF9002220210120FDF74EFB82
:108BD80044F8250038BD00BF08AB00209A99020868
:108BE800B199020870B50D4C54F8202005460E4680
:108BF80022B97E220A490B4807F000F926B97F22DC
:108C08000749094807F0FAF8314654F825000023C7
:108C18004FF0FF32BDE87040FDF7F8BC08AB00200C
:108C28009A990208C89902083AA4020808B5034BA1
:108C38001868FDF7F3FDC0F13C0008BD64AB0020E7
:108C48001028DCBF014B43F820107047C4AA00204D
:108C580010B5044620B9DB220A490B4807F0CEF8C4
:108C680023781E2B04D9DC220649084807F0C6F8E9
:108C78000748002321461A460068BDE81040FDF762
:108C880029BB00BF9A9902083AA40208D79902089A
:108C980064AB002008B5064B00211868FDF7A6FA5A
:108CA800044B1B681B6903B19847002008BD00BF2F
:108CB80064AB002044000020034B1B68DB6803B151
:108CC80018470120704700BF4400002070B5094CC8
:108CD8002368054613B11B680020984735B1256005
:108CE800236801201B68BDE870401847024B2360C9
:108CF800F6E700BF440000204800002038B50C4CBF
:108D08004FF0FF330021054644F820300AF060FE9A
:108D1800084B282202FB0532002352F823100131A8
:108D280002D044F8253038BD01330A2BF5D1FAE7D3
:108D380068AB002084AB00202DE9F74F8146FDF792
:108D4800BFFF2C4B93F80080B8F1000F4FD0C4B28E
:108D5800294B53F82430581C49D00A2505FB043503
:108D6800264E274A56F8257052F823B025487B1C12
:108D780046F825300BEBC70A002319464FF0FF329F
:108D88000068FDF743FCDAF80430991C1BD05A1C24
:108D98001ED01BF8371020460AF01AFEDAF8042015
:108DA80000259AB12B46042100954846FDF738FE68
:108DB800FCF7DEFC00952B46024601214846FDF7EC
:108DC8002FFE45460AE0002246F82520154605E014
:108DD800204646F82530FFF791FF00250948002373
:108DE8001A4619460068FDF775FA002DB0D003B091
:108DF800BDE8F08F7DAB002068AB002084AB00207D
:108E0800389B020880AB00202DE9F3411D4D2C78DA
:108E1800ACBB0AF0E3FD23461B491C4C4FF0FF3066
:108E280044F82300002241F8220001320A2AFAD12C
:108E38000133052B01F12801F2D1DFF86080144FCE
:108E4800144E00242346CDF8008000224FF47A7196
:108E58003846FDF7BDFD46F824000134052CF1D154
:108E6800032200210120FDF701FA0B4A106020B10E
:108E780000231A461946FDF72DFA01232B7002B07C
:108E8800BDE8F0817CAB002084AB002068AB0020FB
:108E98001B9A02084CAC002080AB0020418D0008D2
:108EA80010B5044B1C780AF0D1FD034B01221A704F
:108EB800204010BD7CAB00207DAB0020F8B5174BDF
:108EC8000546002453F82420914203D001340A2C8B
:108ED800F8D1F8BD124E002319464FF0FF32306822
:108EE800FDF794FB0A2202FB05420E4B0027284699
:108EF80043F82270FFF702FF3B463A46394630688E
:108F0800FDF7E8F9084B53F82530A342E1D1074BA8
:108F180053F82500BDE8F840FFF70EBF389B02085C
:108F280080AB002084AB002068AB00204CAC002054
:108F38004160C26070470000154B70B505460024BB
:108F480053F82420914203D001340A2CF8D170BD83
:108F5800104E002319464FF0FF323068FDF756FBDC
:108F68000A2303FB05440C4B4FF0FF32284643F815
:108F78002420FFF7C3FE00231A4619463068FDF780
:108F8800A9F9064B53F82500BDE87040FFF7D4BE99
:108F9800389B020880AB002084AB00204CAC00203A
:108FA80008B54FF05F0383F31188BFF36F8FBFF3EA
:108FB8004F8F0649064807F05EF9012102200AF0A2
:108FC80007FD012104200AF003FDFEE7609B02086B
:108FD800D59300087047012070470000024B1B68BA
:108FE8000BB11B681847704760AC0020024B1B6828
:108FF8000BB15B681847704760AC0020014B1860E4
:10900800704700BF60AC00201FB500230222009209
:10901800CDE9023301934FF4967203490348FCF7F4
:10902800A7F905B05DF804FB5D9C02085D91000896
:1090380073B5284C2578002D4AD10120FDF710FA88
:10904800254B4FF0FF32294618602B46FDF7DEFA14
:109058000EF0F8FA13F084FCFFF772FD00F074F9D3
:109068001E491F481F4D07F006F91F491C4807F005
:1090780002F91E491E4B08681E491A680E781E49D7
:109088001E4B002E08BF29461B68CDE900011C496C
:10909800134807F0F0F81B4B1B4AB3F90030019353
:1090A8001A4B1B491B6800931A4B12681B680C4823
:1090B80007F0E1F819F010FD01F09EF915F0C6FD72
:1090C800FFF7A2FE0EF086FCFFF784FF0123237052
:1090D80002B070BD65AC0020082A0120C59B0208BB
:1090E800D5930008BF9B0208E89B020814040020DF
:1090F8000C040020A6000308B69B020810040020F8
:109108000F9C0208227AFF1F187AFF1F107AFF1F90
:10911800299C0208147AFF1F38B5084B1C78FFF702
:10912800BFFE05460EF07CFC2840044001F070F9B3
:109138000440FFF750FF204038BD00BF65AC002059
:10914800034800231A4619460068FDF7C3B800BF54
:10915800082A012038B50AF041FC012100200AF054
:1091680037FCFFF765FF00F0A9F801F0B5FA15F034
:10917800E9F915F0E3FB02F0CBFC15F0E5FB08B1CB
:109188000AF0FAFB13F0A2FA13F03AFDFFF7C4FF56
:10919800044619F04FFD044000F0AEF8E4B2044074
:1091A80001F020FB044002F0EDFC044015F0E8F962
:1091B800044013F0B1FA044013F044FD04400CF0ED
:1091C8003FFD1F4DE8B1E4B101242C70FFF7B8FF53
:1091D800062013F0A7FA1B490420FFF76FFE1A496F
:1091E8002046FFF76BFEFDF783FE18490246184834
:1091F80007F041F801F014F94FF0FF30FCF72AFCB2
:10920800FAE700232B70FFF787FF90B10E4C214639
:109218000420FFF753FE4FF4FA60FCF71BFC2B7891
:10922800002BF4D00B490A4807F025F8FFF788FF10
:10923800D9E70AF0D3FB012104200AF0C9FBD2E7E1
:1092480066AC0020289A0208C09A0208789C020896
:10925800D5930008649C020810B50B4C23787BB1A9
:109268000A4C002319464FF0FF322068FDF7CEF96B
:10927800002320681A461946BDE81040FDF72AB8B1
:109288000220FCF7E7FBE9E765AC0020082A01208B
:10929800014B1870704700BF64AC002008B5FCF79C
:1092A80067FA054A1368C31A502B02D91060FEF7F3
:1092B8006BFB30BF08BD00BF68AC002010B50D4C7B
:1092C8002378ABB90CF0B2F90EF018FE0EF0A2FE3E
:1092D800FFF7FCFC00F084F913F026F900F002FF18
:1092E80000F0B0F901F0C6FE05F02EFB0123237053
:1092F80010BD00BF6CAC002038B50B4B1C780EF0CD
:10930800C9FD0546FFF74EFC2840044000F078F9F7
:10931800044013F019F9044000F034F8044000F058
:1093280029FA204038BD00BF6CAC002010B5054CB0
:109338002046FFF78DFC002301280CBF2370184638
:1093480010BD00BF0C2A012038B50B4D2C788CB904
:109358000A4B0322214601201C705C70FCF786FF33
:10936800074A106020B1234622462146FCF7B2FF87
:1093780001232B7038BD00BF6DAC00200C2A0120E2
:1093880070AC0020014B1878704700BF6DAC00200E
:1093980037B50C4C054601AA00212068FDF7F6F9FF
:1093A80001280CD1084A206813781D2B9EBFD118BC
:1093B80001338D7001A998BF1370FDF7D5F82846C1
:1093C80003B030BD70AC00200C2A0120F8B5214A4A
:1093D800214B12785B680646002A38D0C3F308038D
:1093E8001BB1BDE8F840FFF7D3BF1C4D4FF0FF326B
:1093F80019462868FDF70AF9012826D1184C237860
:109408001D2B13D9FFF712FC01280CD12178154820
:1094180000235A18002A06DDC71822443F7997709E
:10942800013B5A1DF5D1FFF781FF08E0E21801332F
:10943800DBB20A2E96702370E4D01E2BE2D00023F4
:109448001A4619462868FCF745FFF0B2F8BD1046E1
:10945800FCE700BF6DAC002000ED00E070AC002020
:109468000C2A0120929C020800230E4A4360836064
:10947800C360036180ED000AC0ED050A80ED061A9D
:10948800C0ED071AC262036380ED0D2A80F85410FC
:1094980031B1F0EE430AB0EE620A383006F076BC1D
:1094A800704700BF00409C4510B504462DED028B67
:1094B80029B1D0ED007A37EEC00A80ED010A94EDAB
:1094C800017AD4ED026A94ED050ADFED2E7A94F85C
:1094D800543027EE000A37EE667AD4ED0D6A84ED33
:1094E800080A30EE278AF0EE678A87EE260A1BB153
:1094F80004F1380006F054FC84ED040AD4ED047A33
:1095080094ED070A94ED017A94ED0B1AF4EE677A5C
:10951800F1EE10FA68BFC4ED048AD4ED047A20EEA7
:10952800270AD4ED0D7A84ED0A0A30EE088A94ED04
:10953800030AA7EE270AB5EE401AF1EE10FA84EDF9
:10954800030A05D0F1EE410A06F007FF84ED030A8D
:1095580094ED060AD4ED037A94ED0C1A20EE270A4E
:10956800B5EE401AF1EE10FA84ED090A30EE080A59
:1095780003D0F1EE410A06F0F0FEBDEC028B636801
:10958800A36010BD0000000080ED0B0A70470023A7
:1095980043608360C3600361704780ED010A7047D0
:1095A80080ED000A7047000010B5437813F00303FC
:1095B80004460ED0012B00D010BD03461E2203F82E
:1095C800022B002118461FF08EFB04491FF093FB65
:1095D8002046BDE81040FFF73BBB00BF979C020840
:1095E80010B5054C23782BB904490F20FFF728FB49
:1095F8000123237010BD00BF74AC0020B195000892
:10960800014B1878704700BF74AC002070B50B4B45
:1096180019680B4B00221C680C251346994203DC81
:109628004FF0FF33184670BD05FB03F6A657002E12
:1096380002DB8242F6D001320133EFE7A4AC00200E
:1096480098AC00202DE9F04F3B4B1C7887B09B4627
:1096580054BB3A4A3A4E3B4B32609B1A3A4A3B4912
:109668003B4FDFF80CA13C609B1053430B60A046B6
:10967800A1460491049B31681D68454517DC354BAC
:10968800186800220C2695424CDC04B118600023AF
:109698000124CDE902330193009496222E492F48E4
:1096A800FBF766FE8BF8004007B0BDE8F08F0C258D
:1096B80005FB08F53B68CAF802304A5D8AF80620BF
:1096C8004A5D4B1911061DD5D20703D55868FBF71B
:1096D80063FD814633681D44696809B308460591EE
:1096E800FBF75AFD059902461D481FF0F1FA686814
:1096F800FBF752FD411D1B4806F0CAFD08F10108A1
:109708003860B7E75868FBF747FD09F102031844CA
:109718001B28DFD975221449144806F06FFBD9E7D6
:109728000521E8E706FB02F70132CF57002FA4BF57
:1097380001300124A7E700BF75AC0020E03E030814
:1097480098AC0020644B0308ABAAAAAAA4AC0020DA
:10975800A0AC00209CAC0020C29C0208A99800087C
:109768007DAC002078AC0020AA9C02084E29030892
:1097780076AC0020014B1878704700BF75AC00200C
:109788002DE9F047034618B101282DD0BDE8F08730
:10979800394A3A4F3A4CD2F800C03A4E3A68E07823
:1097A800043219464FF00C0EB246614507DB202300
:1097B80063700023A37001232370314857E012F827
:1097C800045C15F0800F0EFB01F8A2F1040905D026
:1097D800ED0707D5166801310C32E6E7984210D03C
:1097E8000133F8E75646F6E725488370264B1B6891
:1097F800C370264B202242701B6843600622027009
:1098080035E0202363700023E070A37099F80030DE
:1098180023713046FBF7C0FC0546D9F80400FBF776
:10982800BBFC28440530C0B21E28207004D9ED22A4
:109838001749184806F0E2FA3046FBF7ADFC314606
:10984800421C1548154D1FF043FA3046FBF7A4FC9F
:109858003B6898440446D8F804603046FBF79CFC03
:109868000434421C314628191FF032FAA81EBDE8FC
:10987800F047FFF7EDB900BFA4AC002098AC00207A
:1098880076AC00204E2903089CAC0020A0AC002038
:10989800AA9C0208C89C02087BAC002078AC002077
:1098A8002DE9F74F0220FFF783F97B4CDFF8F89199
:1098B80079490220FFF796F96678A57816F003062D
:1098C80003D12846FFF75CFFF2E7012E32D1284684
:1098D800FFF79CFE002806DAFF23A3700223E57039
:1098E8002371032311E00C2358436C4B1A68131897
:1098F800125C9B6802F00302022A0FD0032A12D0DE
:10990800012A07D01B78E370022323702046FFF753
:109918009FF9CDE71B88A4F80330E2E71B68C4F879
:1099280003300523F1E75E491A680A605A684A60FD
:109938000923EAE7022E2AD12846FFF767FE002806
:1099480004DAFF23A370E5702671CAE70C23584395
:10995800524B1B681A181B5C5906A9D403F0030361
:10996800022B926809D0032B0BD0012B15BFE3788B
:10997800B4F8033013701380C8E7D4F803301360C9
:10998800C4E7474B19685B68C2E90013BEE7002DBE
:109998008ED12B46E218927802B9013501331E2B7D
:1099A800F8D1012D74DD3E48FBF7F6FB061D264471
:1099B80005463046FBF7F0FB3A4B00901B680193D5
:1099C800364B1F68CA464FF0000B019B9B4515DBC1
:1099D80002253348FBF7E0FB07463046FBF7DCFB84
:1099E800274407442E487D71FBF7D6FB05463046D1
:1099F800FBF7D2FB28440430207087E797F80080F3
:109A080018F0800F08D018F0010F1AD0D7F804A06A
:109A18000BF1010B0C37D8E731467868FBF7B2FB3E
:109A28000028F5D11E495046FBF7ACFB0028EFD1C2
:109A3800009B2B449A46E3185B79434503D01625CF
:109A4800C7E7CA46E4E713F040051FD103F0030354
:109A58000AF10402022B0AF1060A04EB0A00B968AB
:109A68000BD0032B0DD0012B17BFA31834F80A30E5
:109A78009B780B7008BF0B80ABE754F80A300B607B
:109A8800A7E7D0E90023C1E90023A2E70D25A0E755
:109A980003B0BDE8F08F00BF76AC002098AC002082
:109AA80079AC0020A4AC00204E2903081C4B2DE9FA
:109AB800F34100250C211F4601FB05F2D4588442CE
:109AC80029D00135102DF7D1022002B0BDE8F08170
